:020000040800F2
:1000000010BE012061020008CF380008692E0008E8
:10001000CD380008B31000082D490008000000008A
:10002000000000000000000000000000A101000826
:10003000B510000800000000FD010008E1390008CB
:100040007B0200087B0200087B0200087B0200089C
:100050007B0200087B0200087B0200087B0200088C
:100060007B0200087B0200087B0200087B0200087C
:100070007B0200087B0200087B0200087B0200086C
:100080007B0200087B0200087B0200087B0200085C
:100090007B0200087B0200087B0200087B0200084C
:1000A0007B0200087B0200087B0200087B0200083C
:1000B0009D3A00087B0200087B0200087B020008D2
:1000C0007B0200087B0200087B0200087B0200081C
:1000D0007B020008E1480008ED48000821490008BB
:1000E0007B0200087B0200087B0200087B020008FC
:1000F0007B0200087B0200087B0200087B020008EC
:100100007B0200087B0200087B0200087B020008DB
:100110007B0200087B020008A93A00087B02000865
:100120007B0200087B0200087B0200087B020008BB
:100130007B0200087B0200087B0200087B020008AB
:100140007B0200087B0200087B0200087B0200089B
:100150007B0200087B0200087B0200087B0200088B
:100160007B0200087B0200087B0200087B0200087B
:100170007B0200087B0200087B02000800000000F0
:100180007B0200087B020008DFF810D000F0AAFD17
:1001900000480047F9630208AFF3008010BE012059
:1001A0002C4B19680868B0E8F04F80F30988BFF35A
:1001B0006F8F4FF0000080F311887047000000003F
:1001C00008480068006880F308884FF0000080F35A
:1001D000148862B661B6BFF34F8FBFF36F8F00DF35
:1001E00000BF00BF08ED00E0DFF80C00016841F43B
:1001F00070010160704700BF88ED00E0EFF30980F7
:10020000BFF36F8F134B1A681EF0100F08BF20ED5D
:10021000108A20E9F04F106009B44FF0500080F3CD
:100220001188BFF34F8FBFF36F8F2DF0F7FF4FF0A3
:10023000000080F3118809BC19680868B0E8F04F25
:100240001EF0100F08BFB0EC108A80F30988BFF3CE
:100250006F8F70476C010020EFF30580704700003E
:100260000648804706480047FEE7FEE7FEE7FEE750
:10027000FEE7FEE7FEE7FEE7FEE7FEE78D3A000851
:10028000890100082DE9F05F0546002092469B4653
:1002900088460646814640241BE02846414647469C
:1002A000224600F020FA53465A46C01A914110D314
:1002B00011461846224600F007FA2D1A67EB01088E
:1002C0004F4622460120002100F0FEF917EB0009FD
:1002D0004E41201EA4F10104DFDC484631462A4687
:1002E0004346BDE8F09F40EA01039B0703D009E0C5
:1002F00008C9121F08C0042AFAD203E011F8013B12
:1003000000F8013B521EF9D27047D2B201E000F86A
:10031000012B491EFBD270470022F6E710B51346A9
:100320000A4604461946FFF7F0FF204610BD30B5D7
:1003300005462A460B4612F8010B13F8014B08B18B
:10034000A042F8D01CB1002802D06D1CF1E728466D
:1003500030BD10B5044604E00B7800F8013B03B152
:10036000491C521EF8D2204610BDCAB2401E10F8D9
:10037000011F8A4202D00029F9D100207047421C97
:1003800010F8011B0029FBD1801A704710B500221C
:1003900000E0521C835C8C5CA34201D1002BF8D19D
:1003A000D8B2E1B2401A10BD034611F8012B00F893
:1003B000012B002AF9D11846704700000FB400B590
:1003C0008DB010A909900B9000914FF0FF300A906A
:1003D00000200C9005480690054807906A4609A839
:1003E0000F9900F0B3F90DB05DF814FB6907000830
:1003F000870700082DE9FF5F1D464FF0FF3BD5E959
:10040000014691465F464FF00008A9697F1C01989C
:100410008847296A824688470028F6D1BAF1FF3F0B
:100420000CD024F4C064002E19DD600614D5BAF196
:100430002B0F09D0BAF12D0F0ED103E0584604B0AE
:10044000BDE8F09F44F48064A9697F1C0198884747
:10045000761E8246002E02DDBAF1300F03D0B9F1CC
:10046000000F26D032E0A969761E44F400747F1C88
:10047000019888478246002E05DDBAF1780F06D034
:10048000BAF1580F03D0B9F1000F10D01EE0B9F146
:10049000000F02D0B9F1100F18D1A969761E24F40B
:1004A00000747F1C019888478246102002E00820D3
:1004B00000E00A20814609E008FB0908A969761EC8
:1004C00044F400747F1C019888478246002E05DDA5
:1004D0004946504600F025F90028EDDAE96901980F
:1004E0008847A00502D46FF00100A8E7E00725D1F6
:1004F000600613D5600502D5C8F1000000E0404653
:1005000029680A1D2A600968220501D5087015E0CE
:10051000220701D5088011E008600FE02868011D5E
:1005200029600068210502D580F8008006E02107D7
:1005300002D5A0F8008001E0C0F8008038467EE7D0
:100540002DE9F04791460F4680460446002614F8F0
:10055000015B2DB100F0D8F80068405DC007F6D10E
:100560002B2D02D02D2D18D0641E4A463946204628
:1005700000F01AF927B13968A14201D1C7F800800B
:1005800071054FF002040BD54042002803DD04F052
:1005900009FA0460A007BDE8F08746F48066E4E746
:1005A0000028F8DA04F0FEF904606FF00040F2E78A
:1005B00070B5064604F0F6F9046805460A220021E3
:1005C0003046FFF7BDFF2C6070BD0EB540F23341E1
:1005D00002910021CDE900110A460B4600F042F9D4
:1005E00003B000BDC1F30A5210B5C1F3130140F2CC
:1005F000FF3341F480119A4201DA002010BD40F22D
:1006000033439A42A2F2334203DC524200F06BF8C9
:1006100010BD904010BD00F0004230F000400AD004
:10062000C10D01F56071C0F3160042EA0151C20824
:1006300040071143704700200146704730B5041E43
:1006400071F1000404DB4FF00044404264EB01010F
:10065000141E73F1000405DB1C464FF000435242A8
:1006600063EB04038B4208BF824230BD30B5041EE9
:1006700071F1000404DB4FF00044404264EB0101DF
:10068000141E73F1000405DB1C464FF00043524278
:1006900063EB0403994208BF904230BD30B50B466E
:1006A000014600202022012409E021FA02F59D42A2
:1006B00005D303FA02F5491B04FA02F52844151E76
:1006C000A2F10102F1DC30BD202A04DB203A00FA5D
:1006D00002F1002070479140C2F1200320FA03F399
:1006E000194390407047202A04DB203A21FA02F097
:1006F0000021704721FA02F3D040C2F1200291405C
:1007000008431946704700000048704754B6040873
:1007100010B50446FFF7F8FF0068005D00F0010027
:1007200010BD3A2800D2303820F02002412A01D3EF
:10073000A2F13700884201D34FF0FF30704700002C
:10074000026811441378016018467047D16004496B
:1007500051610449116200211161114600F0E6BAAD
:100760004107000811070008426842B1016811F80A
:10077000013B23B1521EC0E9001218467047012107
:10078000C160881E704742685AB1C368016843B9A6
:1007900083688B4205D0491E521CC0E9001200201C
:1007A00070474FF0FF3070472DE9F05F82460078C8
:1007B000002715468B460AF10104B946302801D0BE
:1007C0009DB113E014F8010B0127782803D05828B5
:1007D00001D045B10AE00DB1102D07D10027102539
:1007E00014F8010B02E0082500E00A250026B046B7
:1007F0000EE005FB080005FB06F1012701EB1046A2
:100800001FFA80F8B6F5803F00D3B94614F8010B03
:100810002946FFF786FF0028EBDABBF1000F05D071
:100820000FB1641E00E05446CBF80040B9F1000F50
:1008300006D004F0B7F802210160C81EBDE8F09FA1
:1008400048EA0640FAE710B5141E73F1000408DA0E
:10085000401C41F1000192185B411A4301D120F084
:10086000010010BD2DE9F04D92469B4611B1B1FA41
:1008700081F202E0B0FA80F220329046FFF724FFC6
:1008800004460F4640EA0A0041EA0B0153465A4625
:10089000084313D0114653EA010019D0C8F14002B1
:1008A0005046FFF720FF05460E4650465946424641
:1008B000FFF70AFF084305D0012004E0204639462F
:1008C000BDE8F08D0020054346EAE0762C4337432F
:1008D0000A986305E40AA0EB08000022FD0A44EA36
:1008E00047540A3002D500200146E9E701051019F6
:1008F0006941DDE9084500196941BDE8F04DA2E70D
:100900002DE9FE4F804681EA0300C00F0C4600909F
:1009100021F0004123F00045B8EB0200A94105D2C7
:100920004046214690461C460B46024623F00040B6
:10093000104347D0270DC7F30A00C3F30A510290B2
:10094000401A019040286BDAC3F3130040F4801B77
:100950000098924620B10023D2EB030A63EB0B0B05
:1009600001985946C0F140025046FFF7ADFE0646D9
:100970000D4650465946019A00F0C6F910EB0800A2
:100980006141002487EA115284EAE7731A4340D098
:10099000009A62B3019A012A4FEA075215DC001B44
:1009A00061EB02014FF0004202EA0752CDE900423A
:1009B000001C41F5801132462B46FFF753FF03B070
:1009C000BDE8F08F40462146F9E7001B61EB0201CC
:1009D000001C41F5801300185B412018A2F5001798
:1009E00047EB030140EAD570B6196D4111E06D087F
:1009F0004FEA360645EAC0754FEA0752001B61EB25
:100A00000201001C41F5801149084FEA300000192D
:100A1000514132462B4603B0BDE8F04FFFF713BFFC
:100A20000098012240000023D0EB020263EBE07348
:100A3000009821464FEAE074B8EB000061EB040136
:100A4000E9E783F000435BE781F0004158E72DE9D7
:100A5000FE4F81EA030404F0004421F000410094B9
:100A60004FF0000B23F0004350EA01045ED052EA3D
:100A700003045BD0C3F30A54C1F30A552C44A4F217
:100A8000F3340194A0FB0254C1F3130141F480112B
:100A9000C3F3130343F4801301FB024400FB034E32
:100AA000840A970A44EA815447EA8357A4FB0768FB
:100AB00002958D0A05FB07854FEA932C04FB0C5425
:100AC0002705029D4FEA065847EA1637B5EB080599
:100AD0006EEB070C870E920E47EA811742EA8312EB
:100AE000A7FB0201B6EB0B0164EB00042B0D43EAFC
:100AF0000C335E1844EB1C50DA465146E7FB02010A
:100B0000C5F313044FEA0B3343EA14534FEA04329C
:100B1000019C43EA0603A4F10C040294009CCDE975
:100B200000B4FFF79FFE03B0BDE8F08F0020014640
:100B3000F9E72DE9F04D81EA030404F0004B21F0C0
:100B4000004514464FF0000A23F0004150EA050228
:100B500020D054EA01021DD0C5F30A570246C5F35E
:100B60001303C1F31300C1F30A5640F4801543F494
:100B70008013A7EB0608101BD64608F2FD3873EB6E
:100B8000050002D308F1010801E092185B41B8F1B9
:100B9000000F03DA00200146BDE8F08D00204FF47D
:100BA0008011064684460EE0171B73EB050705D33C
:100BB000121B63EB050306434CEA010C49084FEA9C
:100BC000300092185B4150EA0107EDD152EA030070
:100BD00012D082EA040083EA0501084305D0101B05
:100BE000AB4106D20122002306E000224FF0004371
:100BF00002E06FF0010253101AEB06004CEB0851B3
:100C000010EB0A0041EB0B01BDE8F04DFFF71BBEF6
:100C10002DE9F04D00231A461B1A8A4103DB002000
:100C20000146BDE8F08DC1F30A52C1F3130141F44E
:100C300080154FF0000BD10702D100186D41521EF4
:100C40000027044640F2FF11384601EB620A3E4697
:100C50008046024600204FF48011FFF744FDC21980
:100C60007141BB1846EB0100B4EB030C75EB000CB3
:100C700004D3E41A65EB000517460E46241908F163
:100C800001006D4180463428E3DDF91946EB06008A
:100C9000091BA84103D24FF0FF32134601E00022A6
:100CA00013461BEB070046EB0A51BDE8F04DFFF77A
:100CB000CABDC1F30A52C1F3130140F2FF3341F43C
:100CC00080119A4202DA00200146704740F2334315
:100CD0009A42A2F2334202DC5242FFF704BDFFF710
:100CE000F3BC0000064C074D06E0E06840F001034D
:100CF00094E8070098471034AC42F6D3FFF748FA5F
:100D00002CBD04086CBD0408202A06DBCB17203A52
:100D100041FA02F043EAE07306E041FA02F3D04000
:100D2000C2F1200291400843194670472DE9F34F64
:100D30008BB04FF0000801F10C000C464FF0010B96
:100D400046460DF1080A0190626901210198904719
:100D5000051E2DD0252D2CD0216A8847C0B162698F
:100D6000012101989047216A88470028F7D1411E48
:100D700062690198904700E0761CA1690B9888474A
:100D8000216A88470028F7D1E1690B988847DBE79B
:100D9000A1690B9888470746A84201D1761CD3E782
:100DA000E1690B9888477F1C02D1B8F1000F6FD022
:100DB00047E1002762693D463946019890472A2855
:100DC00004D162690121019890470125DFF88892DA
:100DD0006269012101989047A0F130010A290AD2E5
:100DE0004F45E5DC07EB870100EB4107303FDFD4DF
:100DF00045F01005ECE7E90601D46FF000476C28D8
:100E00000AD04C2814D0682815D06A280DD0742830
:100E10001CD07A281AD01DE0626901210198904700
:100E20006C2802D045F0040514E045F002050DE001
:100E300045F020050AE06269012101989047682881
:100E400002D045F0080505E045F40065626901211E
:100E500001989047C4E9015765283DD019DC58280E
:100E60007AD00CDC452837D004DC252826D0412850
:100E700031D131E046282FD047282CD12CE05B28F7
:100E800077D0612828D063287CD0642823D15AE009
:100E9000D1E06F2848D008DC66281DD067281BD019
:100EA000692821D06E2816D127E0702845D07328F4
:100EB00068D0752847D078280DD14DE0A1690B98EE
:100EC0008847054625283FF469AFE1690B988847B4
:100ED0006D1C3FF46AAFB4E023466A466FF0010030
:100EE0000B99AFF300809FE045F040006060A807D9
:100EF00023464FF0000236D43EE0E8077FF447AFC8
:100F00002068011D21600068290501D506701BE7D6
:100F1000290701D5068017E7A90703D5F117C0E90E
:100F2000006111E706600FE745F040006060A80728
:100F300023464FF0080216D41EE040F60E0125EAC3
:100F40000100606016E045F040006060A80723469D
:100F50004FF00A0207D40FE045F040006060A80798
:100F600008D5234610226FF001000B99AFF30080E3
:100F70005AE007E0234610226FF001000B99FFF7BB
:100F800039FA51E04FF000094F464B46632802D032
:100F90005B2807D041E02079C00601D40120A06081
:100FA00001273AE062690121019890475E2805D146
:100FB0004FF001096269494601989047216939B9A2
:100FC00000210A46534643F82120491C0829FADB30
:100FD000B0B3216969B9C11700EBD16253110AEBB3
:100FE000830122F01F02821A01200B689040034304
:100FF0000B6062690121019890475D28E8D1B9F141
:10100000000F09D00020514651F82020D24341F86A
:101010002020401C0828F7DB02AB224600976FF027
:1010200001000B99AFF3008000280CDA401C08D1B6
:10103000BBF1000F05D04FF0FF300DB0BDE8F08FD1
:10104000FFE74046F9E7E90701D108F10108064446
:101050004FF0000B78E60000CCCCCC0C70B58C18AF
:1010600010F8015B15F0070301D110F8013B2A11BC
:1010700006D110F8012B03E010F8016B01F8016BA9
:101080005B1EF9D12B0705D40023521E0DD401F8A5
:10109000013BFAE710F8013BCB1A921C03E013F86E
:1010A000015B01F8015B521EF9D5A142D8D30020A3
:1010B00070BDFEE7704700002DE9FF4F83B09046FA
:1010C0000E460746002514464FE000BF381BA6EB2E
:1010D000050902901FFA89F180B2069A02F015F90B
:1010E000381901901FFA89F180B2069A02F00DF9C1
:1010F000301981B2A7EB050900901FFA89F0069A12
:1011000002F003F9A6EB040B1FFA8BF11FFA89F02A
:10111000069A02F0FAF8019806EB050A1FFA8AF11E
:1011200080B2069A02F0F1F807EB05091FFA8BF17D
:101130001FFA89F0069A02F0E8F80098069A81B240
:101140001FFA89F002F0E1F802981FFA8AF180B2E2
:10115000069A02F0DAF86D1C05FB05F004FB0401A9
:1011600018FB08F0814200DD641EA542AEDD07B029
:10117000BDE8F08F72B6FEE72DE9F0410446876DB9
:1011800000F058F9064694F835000025022806D0EC
:101190008020606584F834500120BDE8F08120682B
:1011A000016821F0160101602068416921F0800189
:1011B0004161206C08B9A06C20B12068016821F061
:1011C000080101602068016821F0010101600CE064
:1011D00000F030F9801B052807D920206065032026
:1011E00084F8350084F83450D7E720680068C007D9
:1011F000EED194F85C103F208840B860012084F85C
:10120000350084F834500020C7E790F835100229E3
:1012100003D08021416501207047052180F83510F9
:101220000068016821F001010160002070470000A2
:101230002DE9F84FDFF8BCA10022012503264FF06D
:101240000F090AF1040BAAF1040E00BF0B6805FA9E
:1012500002F42340A34270D10F7907F00307012F56
:1012600001D0022F16D187684FEA420806FA08FC1F
:1012700027EA0C07D1F80CC00CFA08FC4CEA070C62
:10128000C0F808C04768A7430C79C4F30014944021
:101290003C4344600C79E443A4070AD0C4684FEA95
:1012A000420C06FA0CF7BC438F6807FA0CF7274389
:1012B000C7600C7904F00304022C12D1D40800EBAF
:1012C000840CDCF820405707FF0E09FA07F824EADF
:1012D0000804D1F8108008FA07F848EA0408CCF8A6
:1012E000208004684FEA420C06FA0CF7BC430F79E1
:1012F00007F0030707FA0CF7274307604C6814F45C
:10130000403F70D03C4C276847F4804727602468F2
:1013100022F0030704F480440094384C07EB040CDB
:10132000DCF8084897074FEA177809FA08F7BC4332
:10133000334FB84202D1002724E054E0314FB84285
:1013400001D101271EE0304FB84201D1022719E038
:101350002E4FB84201D1032714E02D4FB84201D1DE
:1013600004270FE02B4FB84201D105270AE02A4F8E
:10137000B84201D1062705E0284FB84201D107271E
:1013800000E0082707FA08F72743CCF80878DAF8CE
:1013900000405746D1F804C09C435FEACC2C00D5EE
:1013A0001C433C60DBF800405F46D1F804C09C431E
:1013B0005FEA8C2C00D51C433C60DEF80040774689
:1013C000D1F804C09C435FEA8C3C00D51C433C60D0
:1013D000084F083F3C68D1F804C09C435FEACC3C0E
:1013E00000D51C433C60521C102AFFF42FAFBDE80F
:1013F000F88F0000083C01404438024000300140B2
:10140000000002400004024000080240000C0240BC
:10141000001002400014024000180240001C02406C
:101420000069084000D0012070470AB1816170470F
:101430000904FBE7014880687047000000C00120F4
:1014400070B5040025D094F83D00002520B984F83B
:101450003C50204600F03EFA242084F83D002068ED
:10146000016821F0010101602068016841F4004138
:1014700001602068016821F40041016000F0A4FBD4
:101480004D4A6168914201D84C4900E04C4988427C
:1014900001D2012070BD4B492368B0FBF1F15E68B9
:1014A00026F03F060E435E606368934206D94FF410
:1014B000967359434FF47A73B1FBF3F12368491CD7
:1014C0001E6A26F03F06314319626168914210D8C6
:1014D0004900401EB0FBF1F2521CC2F30B02042A79
:1014E00001D2042022E0B0FBF1F0401CC0F30B005D
:1014F0001CE0A268F2B301EBC10303EB0116431E2B
:10150000B3FBF6F35B1C43F480431B0549D092B355
:1015100001EBC10202EB0111401EB0FBF1F0401CD7
:10152000C0F30B0040F4804040F400402168CA69D9
:101530004CF6FF739A431043C861D4E90710014386
:101540002068026822F0C00211430160D4E903015F
:1015500001432068826848F2FF339A431143816057
:10156000D4E9050108432168CA6822F0FF0210434C
:10157000C86001E00EE016E02068016841F001015A
:1015800001602564202084F83D00256384F83E50E6
:10159000002070BD01EB4106431EB3FBF6F35B1C5C
:1015A000B3E70120C2E701EB4101401EB0FBF1F0BF
:1015B000401CC0F30B00B7E7A086010080841E002A
:1015C00000093D0040420F002DE9F84F1F469046AC
:1015D0008A460446DDF82890FFF72CFF054694F86C
:1015E0003D00202875D1192301226C492046009521
:1015F00001F03CFD0028F5D194F83C00012868D0AA
:10160000012084F83C0020680168C90703D1016803
:1016100041F0010101602068016821F4006101606E
:10162000222084F83D00102084F83E000026266425
:10163000C4F824806785608D20855948E0622B4678
:101640004A465146204601F027FC002878D1208DDB
:10165000544F68B1012814D002282068016816D0C0
:1016600041F480610160206841698069009087E0F1
:101670002068416981690091016841F4007101604D
:101680007EE02068016821F480610160F0E721F4C8
:10169000806101602068016841F40061E2E703288D
:1016A00048D801280AD0022814D04B4600223946D7
:1016B0002046009501F0DAFCD8BB27E02A464946CF
:1016C000204601F052FDA0BB20680069616A0870E5
:1016D0004DE061E04B46002239462046009501F07E
:1016E000C5FC30BB2068016841F4007101602068CE
:1016F0000069616A0870606A401C6062218D491E41
:101700002185618D491E618521682EE02068016870
:1017100021F48061016020680069616A0870606A74
:10172000401C6062208D401E2085608D401E6085BB
:10173000D0E705E02A464946204601F016FD10B1E3
:101740000120BDE8F88F20680069616A0870606A4E
:10175000401C6062218D491E2185618D491E618575
:1017600021684A69D24352070AD409690170606A44
:10177000401C6062208D401E2085608D401E60856B
:10178000208D00288BD1202084F83D0084F83E6015
:1017900084F83C600020D4E70220D2E70200100069
:1017A0000000FFFF040001002DE9F84F1F4690469E
:1017B0008A460446DDF82890FFF73CFE054694F87B
:1017C0003D0020287FD11923012240492046009561
:1017D00001F04CFC002876D194F83C00012872D02E
:1017E000012084F83C0020680168C90703D1016822
:1017F00041F0010101602068016821F4006101608D
:10180000212084F83D00102084F83E000026266444
:10181000C4F824806785608D20852D48E0622B46C2
:101820004A465146204601F0ADFB90B92068416917
:101830008069009036E02A464946204601F0C8FCFF
:1018400050B1206C042804D12068016841F4007173
:1018500001600120BDE8F88F606A216800780861A6
:10186000606A401C6062618D491E6185218D491E40
:1018700089B2218522685369DB435B070BD451B1E0
:1018800000781061606A401C6062608D401E608557
:10189000208D401E20852A464946204601F0C0FB87
:1018A0000028CED1208D0028C5D154F83D0B016809
:1018B00041F400710160202004F81E09E677667784
:1018C0000020C7E7FFE70220C4E700000200100085
:1018D0000000FFFF00B50068134987B0884220D19F
:1018E0001248016841F400110160006800F4001022
:1018F00005900E481038016841F00201016000684F
:10190000694600F002000590C0200090122001906E
:101910000120029003200390042004900448FFF764
:1019200087FC07B000BD0000005400404038024072
:1019300000040240024881680278114481607047C7
:1019400000C001200B4810B5016841F4007101602E
:10195000016841F480610160016841F480710160B7
:10196000032000F07FF80F2000F006F800F024F8C4
:10197000002010BD003C024070B50D4D04464FF4F0
:101980007A712878B1FBF0F00A490968B1FBF0F0F0
:1019900000F0CBFC48B9102C07D200222146501E83
:1019A00000F040F800206C6070BD012070BD0000A8
:1019B00000C0012010C001200A4808B5016841F4A8
:1019C00080410160006800F4804000900548001FDD
:1019D000016841F080510160006800F08050009083
:1019E00008BD00004438024000280DDB00F01F0253
:1019F000012191404009800000F1E020C0F88011F1
:101A0000BFF34F8FBFF36F8F7047002809DB00F0E3
:101A10001F02012191404009800000F1E020C0F840
:101A200000117047F0B40E4B1B680C46C3F3022341
:101A3000C3F10705042D00D90425191D072901D27A
:101A4000002300E0DB1E012606FA05F1491E2140B5
:101A500099409E40761E16403143F0BC02F092BF82
:101A60000CED00E0064900F0070208684FF6FF039E
:101A7000184040EA0220034A104308607047000003
:101A80000CED00E00000FA052DE9F0470E460500D8
:101A900065D0DFF81481D8F80000F7B200F0070035
:101AA000B04207D288F80070D8F8000000F00700B4
:101AB000B04254D128683D4C810712D5400703D568
:101AC000206840F4E05020602878000703D52068A3
:101AD00040F4604020602068A96820F0F0000843CE
:101AE00020602878C0072DD030496868083901285F
:101AF00012D0022813D0032811D0096889070029C1
:101B00002DDA216821F0030101432160FFF792FCE7
:101B1000814641F2883A0EE009688903EFE70968D7
:101B20008901ECE7FFF786FCA0EB0901514502D9DA
:101B30000320BDE8F0872068696800F00C00B0EB76
:101B4000810FEFD1D8F80010404601F00701B142F3
:101B500007D90770006800F00700B04201D00120EB
:101B6000E7E72878400705D52068E96820F4E050C9
:101B7000084320602878000706D52068296920F4EA
:101B8000604040EAC100206000F03EF82168084A49
:101B9000C1F30311515CC84006490860064800685B
:101BA000FFF7EAFE0020C4E7003C0240083802408C
:101BB000B0F9020810C0012004C0012001480068EB
:101BC0007047000010C001200448054900680968FA
:101BD000044AC1F38221515CC840704710C0012003
:101BE00008380240C0F9020804480549006809683D
:101BF000044AC1F34231515CC840704710C0012013
:101C000008380240C0F90208154810B5006810F005
:101C10000C02144813D04110042A0FD0082A0ED108
:101C20000F4C241F2268236802F03F025B0207D595
:101C30002068C0F38810A0FB010106E0084610BD33
:101C40002168C1F38811A1FB00010023FEF71AFBF4
:101C50002168C1F30141491C4900B0FBF1F010BDFE
:101C6000083802400024F4002DE9F84F04006ED03B
:101C70002078DFF84C93C007A9F104054AD009F198
:101C800004000168C1F38101012908D00068C0F394
:101C9000810002280AD1D9F80000400206D5286840
:101CA000800337D560680028E1D033E06068B0F584
:101CB000803F10D0B0F5A02F286810D020F48030DD
:101CC0002860286820F4802028606068A8B1FFF7A9
:101CD000B1FB06460DE0286840F48030F4E740F49C
:101CE00080202860F7E700BFFFF7A4FB801B642873
:101CF00073D828688003F7D50CE0FFF79BFB0646F6
:101D000005E000BFFFF796FB801B6428F0D8286829
:101D10008003F7D42078DFF8AC8280074FF0000A08
:101D20003ED5A748001D016811F00C0F08D00068CF
:101D3000C0F3810002280BD1D9F80000400207D47B
:101D40002868800716D5E068012800D112E033E149
:101D5000E068B8B10120C8F80000FFF76BFB064649
:101D600005E000BFFFF766FB801B0228C0D828688B
:101D70008007F7D52868216920F0F80040EAC10003
:101D800028600DE0C8F800A0FFF754FB064604E009
:101D9000FFF750FB801B02281FD828688007F7D464
:101DA0002078000722D5864F87486169703771B166
:101DB00001210160FFF73EFB064604E0FFF73AFB16
:101DC000801B022809D838688007F7D50EE0C0F8D4
:101DD00000A0FFF72FFB064605E082E0FFF72AFB95
:101DE000801B02287DD838688007F7D42078400708
:101DF00068D5DFF8CCB100270BF13C0BDBF8000015
:101E0000C0000BD4DBF8001041F08051CBF800107B
:101E1000DBF80000012700F0805000906B4E306826
:101E2000C00510D4306840F480703060FFF702FBCA
:101E3000009005E0FFF7FEFA0099401A022850D8FA
:101E40003068C005F6D55E4EA0686C3601280FD00C
:101E50000528306810D020F001003060306820F094
:101E600004003060A068B8B1FFF7E4FA00900FE01A
:101E7000306840F00100F4E740F004003060F7E71C
:101E8000FFF7D8FA0099411A41F28830814266D8AA
:101E900030688007F4D50EE0FFF7CCFA009007E039
:101EA000FFF7C8FA0099411A41F28830814256D8AA
:101EB00030688007F4D42FB1DBF8001021F0805196
:101EC000CBF80010A069C8B33D49091D0968C1F3EA
:101ED000810102294AD00228504607D0C8F8600084
:101EE00000E03CE0FFF7A6FA04463BE04746C8F8AE
:101EF0006000FFF79FFA064605E000BFFFF79AFA79
:101F0000801B02282BD828688001F7D4D4E9070168
:101F10000843A16A2E4A490802EB0141626A41EA7C
:101F20008211084394F82C1040EA0161C9F80010AE
:101F300001203866FFF77EFA044606E03EE000BF67
:101F4000FFF778FA001B022809D828688001F7D526
:101F500034E000BFFFF76EFA001B022802D903200D
:101F6000BDE8F88F28688001F4D427E00128F7D075
:101F7000D9F80000E26900F4800191421CD1226A84
:101F800000F03F01914217D147F6C071626A0140EB
:101F9000B1EB821F10D1A26A4FF0FF3300F4403141
:101FA00003EB5202B1EB024F06D194F82C1000F073
:101FB0007060B0EB016F01D00120D1E70020CFE7C6
:101FC0000438024000004742800E47420070004043
:101FD0000000FFFF70B5040009D0606A002540B121
:101FE00025616561A56294F8510040B10CE00120C3
:101FF00070BD6068B0F5827FF4D0E561F2E784F8E7
:102000005050204600F044F8022084F85100206827
:10201000016821F040010160A088218900F48270EC
:1020200001F404410843A18901F400610843217CC3
:1020300001F002010843217D01F001010843218BD9
:1020400001F400710843217F01F03801084394F83E
:10205000201001F080010843218D01F40051084354
:1020600021680860A069042101EA104094F8241056
:1020700001F010010843216848602068C16921F41B
:102080000061C1616565012084F85100002070BDC8
:10209000F0B50068274987B0884249D12648002515
:1020A000016841F002010160016801F0020105913F
:1020B000016841F004010160016801F0040105912B
:1020C000016841F020010160006800F020000590E7
:1020D00019481030016841F4004101600068082689
:1020E00000F40040059001200324CDE90060CDE913
:1020F0000204124F69463846FFF79AF80122082178
:102100003846FFF792F90096CDE9025402260627D9
:1021100069460B4804970196FFF78AF8E002CDE97B
:102120000006CDE90254694604970648FFF780F897
:1021300007B0F0BD003C00403038024000140240BF
:1021400000040240000802402DE9F84F044690F8D0
:10215000500000270A9E1D4692468B464FF001090B
:1021600001280ED0012084F85000FFF763F9804663
:1021700094F85100616801280CD0B1F5827F07D135
:1021800002E00220BDE8F88FA16809B9042801D057
:102190000227C2E0BBF1000F27D0BAF1000F24D014
:1021A0001DB394F85100042802D0052084F8510092
:1021B00000206065C4F838A0E587A587C4F830B072
:1021C000E586A5862064606420680168490603D41A
:1021D000016841F040010160E068B0F5006F60689F
:1021E00005D0E8B3012D46D07FE0012795E008B186
:1021F000012D39D1206B21680088C860206B801CBC
:102200002063E08E401EE0862EE02068816889070A
:102210000FD5E18E69B1B9F1010F0AD1216B09889F
:10222000C160206B801C2063E08E401EE0864FF072
:10223000000920688168C9070CD0E18F51B1C068DE
:10224000A16B0880A06B801CA063E08F401EE0871C
:102250004FF00109FFF7EEF8A0EB0800B04200E0F4
:1022600009E001D3701C50D1E08E0028CDD1E08F61
:102270000028CAD13FE0206B216800780873206BEA
:10228000401C2063E08E401EE0862EE020688168BE
:1022900089070FD5E18E69B1B9F1010F0AD1216B20
:1022A00009780173206B401C2063E08E401EE0869D
:1022B0004FF0000920688168C9070CD0E18F51B147
:1022C000C068A16B0870A06B401CA063E08F401E2B
:1022D000E0874FF00109FFF7ADF8A0EB0800B0422E
:1022E00002D3701C01D010E07EB1E08E0028CDD169
:1022F000E08F0028CAD142463146204601F0E8FA74
:1023000028B101272020606507E0032705E0A068C9
:1023100018B92068C16880680090012084F85100D5
:10232000002084F8500038462CE710B5401EB0F16C
:10233000807F01D3012010BD4FF0E02460610F21A8
:10234000601702F01FFB0020A06107202061002021
:1023500010BD70477047000070B590F83C20012A0E
:1023600032D0012480F83C40022280F83D200368EE
:102370005A689D6822F070060A6832435A60134B0F
:1023800002689A4214D0B2F1804F11D0104B9A4299
:102390000ED0104B9A420BD00F4B9A4208D00F4BE5
:1023A0009A4205D00E4B9A4202D00E4B9A4204D16B
:1023B000496825F080031943916080F83D40002171
:1023C00080F83C10084670BD022070BD000001403E
:1023D0000004004000080040000C004000040140E0
:1023E000004001400018004010B5040003D094F8EC
:1023F0003D0010B107E0012010BD002084F83C0032
:10240000204600F01FF8022084F83D00211D2068BE
:1024100001F056FB012084F8460084F83E0084F861
:102420003F0084F8400084F8410084F8420084F8BA
:10243000430084F8440084F8450084F83D000020FF
:1024400010BD000008B500680B49884212D10B4846
:10245000016841F0100101600068002200F01000E6
:10246000009011463620FFF7DDFABDE8084036201F
:10247000FFF7CBBA08BD0000001000404038024012
:1024800090F83D10012901D001207047022180F809
:102490003D100168CA6842F00102CA600068114933
:1024A000884214D0B0F1804F11D00F4988420ED02D
:1024B0000E4988420BD00E49884208D00D49884207
:1024C00005D00D49884202D00C49884204D1816868
:1024D00001F00701062903D0016841F00101016004
:1024E0000020704700000140000400400008004048
:1024F000000C004000040140004001400018004072
:10250000704770B50446006801694FF00005C94383
:10251000890715D4C168C943890711D4E91E01612F
:1025200001202077206880698007204602D0FFF7CD
:10253000E7FF04E000F098F8204600F05BF925770B
:1025400020680169C943490717D4C168C9434907CD
:1025500013D46FF0040101610220207720688069A4
:1025600010F4407F204602D0FFF7CAFF04E000F0DD
:102570007BF8204600F03EF9257720680169C943C1
:10258000090716D4C168C943090712D46FF00801BE
:102590000161042020772068C0698007204602D0AE
:1025A000FFF7AEFF04E000F05FF8204600F022F9EC
:1025B000257720680169C943C90617D4C168C94392
:1025C000C90613D46FF0100101610820207720683C
:1025D000C06910F4407F204602D0FFF791FF04E06D
:1025E00000F042F8204600F005F9257720680169DF
:1025F000C943C90708D1C168C943C90704D1891EA5
:102600000161204600F05CF920680169C9430906B0
:1026100009D4C168C943090605D46FF0800101617E
:102620002046FFF796FE20680169C943490609D490
:10263000C168C943490605D46FF0400101612046D5
:1026400000F03FF920680169C94389060BD4C168CD
:10265000C943890607D46FF0200101612046BDE817
:102660007040FFF777BE70BD704770B5044690F8B4
:102670003C0000260D4601280FD0012084F83C00C4
:102680006AB1042A1DD0082A2FD00C2A3FD0012677
:10269000002084F83C00304670BD022070BD2068E8
:1026A00001F080FA2068816941F0080181612068A9
:1026B000816921F004018161206881692A691143DF
:1026C00011E0206801F09EFA2068816941F4006100
:1026D00081612068816921F480618161206881695C
:1026E0002A6941EA02218161D2E7206801F0C0FA3B
:1026F0002068C16941F00801C1612068C16921F009
:102700000401C1612068C1692A69114311E0206890
:1027100001F0E2FA2068C16941F40061C1612068FA
:10272000C16921F48061C1612068C1692A6941EAF7
:102730000221C161ACE710B5040003D094F83D005C
:1027400010B107E0012010BD002084F83C002046B5
:1027500000F01EF8022084F83D00211D206801F0E1
:10276000AFF9012084F8460084F83E0084F83F0069
:1027700084F8400084F8410084F8420084F8430063
:1027800084F8440084F8450084F83D00002010BD22
:1027900000B50068144987B0884222D114216846E8
:1027A000FDF7BAFD1148016841F0080101600068B9
:1027B00000F0080005900D481030016841F0040158
:1027C0000160006800F0040005900220C102CDE91C
:1027D00000100121CDE90210049069460448FEF77B
:1027E00027FD07B000BD000000080040303802405F
:1027F000000C02407047000010B50446022249B1A7
:1028000004290ED0082913D094F84100012816D0CD
:10281000012010BD94F83E000128F9D184F83E2033
:102820000FE094F83F000128F2D184F83F2008E03F
:1028300094F840000128EBD184F8402001E084F8AE
:1028400041200122206801F09FF916492068164AAC
:10285000884201D0904203D1436C43F40043436467
:102860002068884213D0B0F1804F10D00F498842C1
:102870000DD00F4988420AD00E49884207D09042B5
:1028800005D00D49884202D00C49884204D18168A4
:1028900001F00701062903D0016841F00101016040
:1028A000002010BD00000140000401400004004071
:1028B00000080040000C00400040014000180040AB
:1028C0007047704770477047F8B50168044608685C
:1028D000CA684B6910F00F0F4FF0000559D003F094
:1028E000010602F49077374365D0C10705D0D105C2
:1028F00003D5216C41F001012164410705D5D907B9
:1029000003D0216C41F002012164810705D5D9076C
:1029100003D0216C41F004012164010707D502F0C6
:102920002001314303D0216C41F008012164216C66
:1029300000293AD0800604D5900602D5204601F041
:102940008EFE20684069216CC0F38010090700D416
:1029500060B3204601F05CFE20684069400621D546
:102960002068143050E8001F21F0400140E80012B8
:10297000002AF5D1A06BA8B16C490165A06BFEF7E8
:1029800044FC002811D0A06B016D01B0BDE8F040FF
:10299000084783060FD593060DD52046BDE8F840BD
:1029A00001F05DBE2046FFF78EFFF8BD2046FFF721
:1029B0008AFF2564F8BD266B2023012E79D1C60637
:1029C00077D5D60675D508684868009048694006EE
:1029D00040D5A16B086840680004000CEAD0A28DC5
:1029E0008242E7D9E085C869B0F5807F2DD02068A4
:1029F0000C3050E8001F21F4807140E80012002ADA
:102A0000F5D12068143050E8001F21F0010140E8A2
:102A10000012002AF5D12068143050E8001F21F080
:102A2000400140E80012002AF5D184F83E302563C9
:102A300020680C3050E8001F21F0100140E800121F
:102A4000002AF5D1A06BFEF797FBA08DE18D401A0F
:102A500081B229E0A08DE18D401A81B2E08D00287D
:102A6000A8D00029A6D020680C3050E8002F22F40E
:102A7000907240E80026002EF5D12068143050E80E
:102A8000002F22F0010240E80026002EF5D184F844
:102A90003E30256320680C3050E8002F22F01002F1
:102AA00040E80023002BF5D12046FFF70BFFF8BDCF
:102AB000FFE705062BD5150629D594F83D002128FA
:102AC000F5D1A068B0F5805F01D12069B0B1206A6E
:102AD000411C2162216800784860E08C401E00049F
:102AE000000CE084E3D12068C16821F08001C1605E
:102AF0002068C16841F04001C160D8E7206A0088C1
:102B0000C0F308004860206A801C2062E5E74006A8
:102B1000CDD55006CBD5CA68204622F04002CA6007
:102B200084F83D3000F09FF9C1E70000014600083D
:102B300070B5040004D094F83D00002510B106E003
:102B4000012070BD84F83C50204600F023F824207A
:102B500084F83D002068C16821F40051C16020461E
:102B600001F0DEFD2068016921F4904101612068D7
:102B7000416921F02A0141612068C16841F4005196
:102B8000C1602564202084F83D0084F83E000020C8
:102B900070BD0000F0B50768444845490222012392
:102BA0000726444C051587B0874226D1404814308B
:102BB000076847F010070760006800F010000590F4
:102BC000086840F001000860086800F00100059006
:102BD00048158DE80D00CDE9032669462046FEF72D
:102BE00027FB694620460095FEF722FB032211468B
:102BF0002520FEF717FF25202AE02D48DFF8B8C072
:102C00001030674528D1056845F400350560006837
:102C100000F400300590086840F001000860086882
:102C2000694600F00100059004208DE80D00CDE913
:102C300003262046FEF7FCFA08200090694620464D
:102C4000FEF7F6FA022203212620FEF7EBFE2620ED
:102C5000FEF7DBFE07B0F0BD184CA742FAD10468BE
:102C600044F480240460006800F480200590086823
:102C700040F00200086008680095CDE9012300F0EB
:102C80000200CDE904600E4C694603922046FEF72F
:102C9000CFFAE014009069462046FEF7C9FA0022F8
:102CA00005212720FEF7BEFE2720D1E700100140B6
:102CB000303802400000024000440040004800401C
:102CC0000004024090F83E30202B0ED159B152B191
:102CD00090F83C30012B08D0012380F83C300023D1
:102CE000036301F0A3BD012070470220704700007C
:102CF000F0B4294B016800225C15284899421FD185
:102D000081880B040ED403780D2B10D00A2B11D020
:102D1000C1F30D05224E491C89B273558180A14231
:102D200000D382801E4801221C49CC382EE041F499
:102D3000804103E04B04F4D541F400418180F1E788
:102D4000184B99420FD1C188A14200D3C280164BC3
:102D5000C18842785A54491CC18010490122491C3B
:102D6000A3F5227012E0114B994212D10189B1F5FD
:102D7000806F00D302810E4B018982785A54491C1E
:102D8000018106490122891CA3F24440F0BCFFF7EF
:102D900099BFF0BC70470000001001400000002007
:102DA00054C301200044004054C5012000480040A5
:102DB00054C701202DE9F843044690F83D001F4612
:102DC00016460D4620284CD1C5B1BEB194F83C0042
:102DD000012846D0012084F83C004FF00008C4F8D8
:102DE0004080212084F83D00FEF724FBA684814624
:102DF000E684A068B0F5805F03D004E00120BDE860
:102E0000F883206928B12E465FF0000584F83C80E5
:102E10000EE00026FAE78021204601F024FDA0B94B
:102E2000AEB116F8010B21684860E08C401EE084CA
:102E3000E08C4B464FF0000200970028EBD14FF09A
:102E40004001204601F00FFD30B10320D7E735F8EF
:102E5000020BC0F30800E6E7202084F83D000020C4
:102E6000CDE70220CBE77047FEE701684A69D2430D
:102E700052050FD46FF480624A61002140F8301F80
:102E8000202242738173026942F0040202610173DD
:102E900001207047002070472DE9F84F0446C06AB2
:102EA0001E4693460D4621680A6842F480620A6015
:102EB000082807D0012805D010F5803F02D0206BEC
:102EC000112804D12068016841F4807101604FF03D
:102ED00001195B46002249462046009600F0C6F8DC
:102EE0004FF4007840B120680068C00501D5C4F8EF
:102EF00040800320BDE8F88F2069DFF884A0B0F59A
:102F0000804F0FD00620216800EAD51747F0F00067
:102F1000086133465A460AF10601204600F0DAF805
:102F200058BB03E0E8B240F001001CE02168E8B2C1
:102F3000086133465A465146204600F0CBF8E0B9C6
:102F40002068416981690091016841F480710160E4
:102F50005B46002249462046009600F087F800288C
:102F6000C1D147F0F1002168086133465A46514605
:102F7000204600F0AFF80028BCD00120BAE70000DE
:102F800002000100F8B50446C06A1E460D46174609
:102F9000082807D0012805D010F5803F02D0206B0B
:102FA000122804D12068016841F480710160134641
:102FB00000224FF001112046009600F057F840B172
:102FC00020680068C00502D54FF40070206403201B
:102FD000F8BD2069B0F5804F0ED00620216800EAC8
:102FE000D51040F0F000086133463A460B492046C0
:102FF00000F070F878B902E005F0FE0000E0E8B2F9
:1030000021680861054933463A46891F204600F089
:1030100061F80028DCD00120F8BD000008000100A4
:1030200070B516460D4604460DE02046FFF71DFF1D
:1030300008B1012070BD681C05D0FEF7FBF9801BAC
:10304000A84207D835B120684069C0434007ECD496
:10305000002070BD002044F8300F20216173A07360
:10306000216941F0200121612073E2E72DE9F04759
:103070001E4690460D460446C1F30747DDF82090F2
:1030800008E0701C06D0FEF7D5F9A0EB0900B042AD
:103090000FD876B12068012F18D0806925EA00008A
:1030A0000004000C14D000214145EAD00020BDE806
:1030B000F087002044F8300F20216173A07321694C
:1030C00041F02001216120730120F0E74069E5E72C
:1030D0000121E9E72DE9F0479A4691460E4604465C
:1030E00000254FF02008C1F3074725E0206840691C
:1030F000C043400514D42068016841F400710160A8
:1031000021686FF480604861256384F83D8084F80D
:103110003E50206C40F00400206484F83C501FE0D6
:10312000B9F1FF3F08D0FEF785F9A0EB0A01494548
:103130000CD8B9F1000F09D02068012F13D0806995
:1031400026EA00000004000C0BD0CFE744F8305F03
:1031500084F80D80A573206940F02000206125735C
:103160000120BDE8F0874069EAE72DE9F04100253C
:1031700090460E460446202717E04069C043C0062B
:103180000CD454F8301B6FF01000486144F810590B
:103190006777A577206A2062257717E0FEF74AF95E
:1031A000A0EB0800B04208D83EB120684169C9438D
:1031B0004906E2D40020BDE8F08144F8305F67732F
:1031C000A573206940F02000206125730120F2E7FB
:1031D00070B516460D4604460DE02046FFF745FE45
:1031E00008B1012070BD681C05D0FEF723F9801BD3
:1031F000A84207D835B120684069C0430006ECD426
:10320000002070BD002044F8300F20216173A073AE
:10321000216941F0200121612073E2E72DE9F041AD
:1032200007461C4615460E462A2000F009FA380AC1
:1032300000F01AFAF8B200F017FA280A00F014FAAF
:10324000E8B200F011FA2B2000F0FAF9300A00F091
:103250000BFAF0B200F008FA200A00F005FAE0B22A
:1032600000F002FABDE8F0412C2000F0E9B92DE9A8
:10327000FE4F151ACDE900104FF000085E1A4746C0
:103280004FF0FF30002D02DD4FF0010102E003D1CD
:103290004FF000018B4602E08346C5F10005002E89
:1032A00002DD4FF0010002E003D14FF00000824642
:1032B00002E08246C5F10006B54201DD2C4600E081
:1032C0003446601C4FF00009029019E000980C9AF7
:1032D00081B2019880B200F018F8A8443744A045A4
:1032E00004DD0198A8EB040858440190A74203DDCF
:1032F00000983F1B5044009009F101001FFA80F92B
:1033000002998945E2DBBDE8FE8F10B514460B46F5
:103310000246FFF783FF2046BDE8104000F081B968
:103320002DE9F04780461F46581E83B21646501EB0
:1033300082B20C464046DDF82090FFF76FFF0AE0AE
:10334000454604E0484600F06CF96D1CADB2B5424C
:10335000F8D3641CA4B2BC42F2D3BDE8F0870000ED
:1033600010B56F4C002204212046FEF75EF8642061
:1033700006F00AF9012204212046FEF756F86420DF
:1033800006F002F9012210216648FEF74EF864208B
:1033900006F0FAF8E02000F053F90F2000F064F98D
:1033A000132000F061F91D2000F05EF9092000F003
:1033B0005BF9182000F058F90A2000F055F9432075
:1033C00000F052F9662000F04FF94F2000F04CF960
:1033D000072000F049F90F2000F046F90E2000F018
:1033E00043F9182000F040F91A2000F03DF90320BD
:1033F00000F03AF9E12000F023F90F2000F034F951
:103400001A2000F031F91D2000F02EF9042000F000
:103410002BF90F2000F028F9042000F025F93120C5
:1034200000F022F9142000F01FF9432000F01CF9ED
:10343000032000F019F90D2000F016F90C2000F01F
:1034400013F9262000F010F9292000F00DF90020D2
:1034500000F00AF9C02000F0F3F8142000F004F99D
:103460000E2000F001F9C12000F0EAF8432000F03E
:10347000FBF8C52000F0E4F8002000F0F5F8362055
:1034800000F0F2F8802000F0EFF8362000F0D8F8D5
:10349000282000F0E9F83A2000F0D2F8662000F089
:1034A000E3F8B02000F0CCF8002000F0DDF8B12007
:1034B00000F0C6F8B02000F0D7F8112000F0D4F8E2
:1034C000B42000F0BDF8022000F0CEF8B62000F0E5
:1034D000B7F8022000F0C8F8022000F0C5F8E92093
:1034E00000F0AEF8002000F0BFF8F72000F0A8F8D8
:1034F000A92000F0B9F8512000F0B6F82C2000F017
:10350000B3F8822000F0B0F8112000F099F878208C
:1035100006F03AF8BDE81040292000F091B800000C
:1035200000100240001402402DE9FF4F81B0044614
:10353000DDE90F7B4FEA570800904FEAD80000FB07
:1035400007FA203AD0B20390029802993844401EFC
:1035500083B204EB0800401E82B22046FFF75EFEF5
:10356000002637E0102F24D0202F35D11C49039896
:1035700001EB80105FF0000510F80690BBF1000F22
:103580004FF0010000FA05F000EA090016D020B162
:103590002046049A0299FFF7B8FE641C0098A4B272
:1035A000211A414510D10298009C401C80B2029023
:1035B0000EE00C49039801EB0010DBE708B104981A
:1035C00000E00E9800F02DF86D1CEDB2082DD5D35B
:1035D000761CB6B25645C5D305B0BDE8F08F0000E5
:1035E000485C0408585604082DE9FE4F9946DDE969
:1035F0000D6714468A460546DDF830800CE0CDF8AC
:1036000000804B4651462846CDE90167FFF78CFF05
:1036100005EB560085B2641C2278002AEFD1BDE884
:10362000FE8F10B50446C0F3074000F01DF8C4F348
:10363000072000F019F8E0B2BDE8104000F014B81F
:1036400070B5084C0546002208212046FDF7EDFE26
:10365000284600F009F82046BDE870400122082104
:10366000FDF7E3BE001002402DE9F047DFF8589067
:103670000546002220214846FDF7D7FE134F0024BF
:103680004FF400484FF40056002231463846FDF70B
:10369000CCFE280601D5012200E000224146384632
:1036A000FDF7C3FE012231463846FDF7BEFE68062F
:1036B000641C050EE4B2082CE6D34846BDE8F0478A
:1036C00001222021FDF7B1BE00100240000402409B
:1036D00038B514F0B1FF14F0F7FF044610211CF0C8
:1036E00057F91F4814F068FA0146002220461FF0DF
:1036F0008FFC204605F050FD204605F0B5FC00206B
:10370000009082230F221749204605F00FFB164D2B
:1037100082235F222863012000901449204605F08F
:1037200005FB6863022000908223AF2210492046E7
:1037300005F0FCFAA863032000908223FF220D49C4
:10374000204605F0F3FAE863204605F0EDFB20463D
:1037500005F036FB2046BDE8384005F083BB00008D
:10376000EED2AD00A44E03087CC001200C29030852
:10377000D83B0308706103082DE9F04387B014219A
:103780006846FCF7C9FD3A480024016841F0100181
:103790000160016801F010010591016841F0040128
:1037A0000160016801F004010591016841F0200108
:1037B0000160016801F020010591016841F080017C
:1037C0000160016801F080010591016841F002018A
:1037D0000160016801F002010591016841F00101F9
:1037E00001600068234F00F00100059000226C2169
:1037F0003846FDF71AFEDFF880800022102140468F
:10380000FDF713FEDFF874904FF420460022314696
:103810004846FDF70AFE6C2000900125CDE90154D1
:10382000694638460394FDF703FD10200090CDE96A
:103830000154694640460394FDF7FAFC0420CDE9A3
:10384000000469460E480294FDF7F2FC80208DE8E2
:10385000310069463846FDF7EBFC0096CDE901548E
:10386000694648460394FDF7E3FC07B0BDE8F083E2
:1038700030380240001002400014024000040240B0
:10388000000802401CB500240F4800940D49019423
:1038900001604721C0E9011440F2E731C160802195
:1038A0008161FEF7A1FD08B1FDF764FC0094694653
:1038B00005480194FEF750FD002801D0FDF75AFCA1
:1038C0001CBD000000100040F8C10120FEE7FEE72B
:1038D00038B504461248134B0068B0FBF3F04FF4C0
:1038E0007A73584300906068B0F5827F0DD10B4623
:1038F000009200228021204600F016F870B1606D21
:1039000040F020006065032038BD009830B1401EB3
:10391000009020688068C0430006F6D5002038BDBE
:1039200010C0012000366E012DE9F8431E46914675
:1039300088460446089DFDF77DFD401B351AFDF7BE
:1039400079FD074625480068C0F3CB30684338E06E
:10395000701C37D0FDF76EFDC01BA84203D215B115
:10396000009860B32CE02068416821F0E0014160DC
:103970006068B0F5827F0BD1A068B0F5004F02D02F
:10398000B0F5806F04D12068016821F0400101602A
:10399000A06AB0F5005F09D12068016821F40051E8
:1039A00001602068016841F400510160012084F841
:1039B0005100002084F850000320BDE8F883002562
:1039C000401E00902068816838EA010004D0002180
:1039D0004945BDD10020F0E70121F9E710C00120E1
:1039E00010B5FDF7A7FF2BF005FC012803D0BDE8BB
:1039F00010402BF057B810BD30B593B03021684659
:103A0000FCF78AFC14210CA8FCF786FC1D48002456
:103A1000016841F080510160006800F08050119011
:103A20001948016841F4804101600068022500F4F2
:103A30008040119001200090000401908001CDE9A8
:103A40000650082008904FF49070099004200A90C6
:103A50000B906846FEF708F908B172B6FEE70F2032
:103A6000CDE90C054FF48050CDE90E4002210CA8A1
:103A70001094FEF709F8002801D072B6FEE713B0E3
:103A800030BD00004038024000700040024801682C
:103A900041F470010160704788ED00E00148FEF7D5
:103AA00030BD000040C2012010B50448FEF729FDDA
:103AB000BDE81040012021F083BF0000F8C10120C3
:103AC000F0B50268254C264D264E274F274B4FF068
:103AD000804CA04209D0604507D0A84205D0B04232
:103AE00003D0B84201D0984204D122F0700E4A6847
:103AF00042EA0E02A0421BD0604519D0A84217D05E
:103B0000B04215D0B84213D0984211D0184DA842F7
:103B10000ED0184DA8420BD0174DA84208D0174D13
:103B2000A84205D0164DA84202D0164DA84203D196
:103B300022F44075CA682A434D6922F080022A4364
:103B400002608A68C2620A688262A04201D098421A
:103B500001D10969016301214161F0BD000001400B
:103B60000004004000080040000C00400004014038
:103B7000004001400044014000480140001800405E
:103B8000001C00400020004010B501F01F0301217F
:103B9000046A99408C430462016A9A4011430162AD
:103BA00010BD0000F0B5026A22F001020262036A51
:103BB00042688469124E24F073050C682C4323F08C
:103BC00002058B682B430D4DA84201D0B04205D1B0
:103BD00023F00807CB683B4323F00403A84201D03D
:103BE000B04205D14D6922F4407215438A692A43D7
:103BF00042608461496841630362F0BD0000014096
:103C000000040140F0B5026A22F010020262026A6A
:103C1000436884690D6824F4E64444EA05248D6809
:103C200022F0200242EA05120F4D104EA84201D0A8
:103C3000B04206D1CF6822F0800242EA071222F099
:103C40004002A84201D0B04207D14D6923F440633D
:103C500043EA85038D6943EA8503436084614968CB
:103C600081630262F0BD00000000014000040140D9
:103C7000F0B5026A22F480720262026A4368C46983
:103C800022F4007224F073050C68124E2C438D68E8
:103C900042EA05220E4DA84201D0B04206D1CF68BB
:103CA00022F4006242EA072222F48062A84201D094
:103CB000B04207D14D6923F4405343EA05138D699F
:103CC00043EA05134360C4614968C1630262F0BD01
:103CD000000001400004014030B5026A22F4805225
:103CE0000262046A4268C3690D6823F4E64343EA4A
:103CF00005238D6824F4005444EA0534084DA84295
:103D000002D0084DA84204D14D6922F4804242EA13
:103D100085124260C36149680164046230BD0000DD
:103D200000000140000401402DE9F04F00242DED7A
:103D30000A8B87B04FF4A0734FF4F07221462046EF
:103D4000FB4E0096FFF7ECFA4FF010084FF47C0999
:103D5000CDE9006800274D464B46F6A228210520F4
:103D60000297FFF741FC14212A46084600F05EFA4C
:103D7000F84D85F820709FEDF80A4FF0010A85EDA7
:103D8000090A9FEDF6AB9FEDF78B4FF4967B6968C0
:103D90000120884795F82000BAEB901FF7D120F05A
:103DA000400085F8200003A8A98920F8241000EB22
:103DB0008400641CE98AE4B24180012C7DD0022C8D
:103DC0007CD0032C7BD0042CE1D1BDF80C00BDF8D5
:103DD0001010401A00D54042BDF80E10BDF8122058
:103DE000891A00D54942404301FB0100FCF7EDFB75
:103DF00041EC100B00F0DAFD51EC100BFCF7F2FB7C
:103E000080B20090BDF81400BDF81810401A00D51B
:103E10004042BDF81610BDF81A20891A00D5494253
:103E2000404301FB0100FCF7D0FB41EC100B00F01C
:103E3000BDFD51EC100BFCF7D5FB84B2009800EEF1
:103E4000100AF8EE400A00EE104AB8EE401A80EE72
:103E5000810A10EE100AFCF7DEFB41EC190B53EC63
:103E60001A2BFCF7EBFB60D353EC182B51EC190B1E
:103E7000FCF7FCFB79D30098002876D0002C74D096
:103E8000BDF80C00BDF81410411A00D54942BDF828
:103E90000E00BDF81620801A00D540424943404329
:103EA0000844FCF792FB41EC100B00F07FFD51EC55
:103EB000100BFCF797FB84B202E037E03EE04AE0EB
:103EC000BDF81000BDF81810401A00D54042BDF8EA
:103ED0001210BDF81A20891A00D54942404301FB4F
:103EE0000100FCF772FB41EC100B00F05FFD51ECA0
:103EF000100BFCF777FB00EE104A80B2F8EE400A98
:103F000000EE100AB8EE401A80EE810A10EE100A98
:103F1000FCF781FBB0EE4ABAF0EE6ABA41EC190B3D
:103F200053EC1B2BFCF78AFB42D21EE014213246D5
:103F3000084600F07BF94A46142113E0324614216A
:103F40004FF4E67000F072F94A4659465FF01400EB
:103F500000F06CF91BE732465946142000F066F970
:103F60004A4659464FF4E670F2E700243246594675
:103F70004FF4E67000F05AF914214A46084600F062
:103F800055F9CDE900684B4678A228210520029713
:103F9000FFF72AFBCDE900684B467CA23C210520B7
:103FA0000297FFF721FB4FF4167005F0EDFAEEE6ED
:103FB000B0EE48CAF0EE68CA53EC1C2B51EC190B5A
:103FC000FCF754FBD1D3BDF81000BDF81410411A12
:103FD00000D54942BDF81200BDF81620801A00D560
:103FE0004042494340430844FCF7EFFA41EC100BD0
:103FF00000F0DCFC51EC100BFCF7F4FA84B2BDF8D5
:104000000C00BDF81810401A00D54042BDF80E1043
:10401000BDF81A20891A00D54942404301FB01002E
:10402000FCF7D3FA41EC100B00F0C0FC51EC100B84
:10403000FCF7D8FA00EE104A80B2F8EE400A00EE23
:10404000100AB8EE401A80EE810A10EE100AFCF752
:10405000E2FA41EC190B53EC1B2BFCF7EFFA84D37B
:1040600053EC1C2B51EC190BFCF700FBAAD3BDF849
:104070001010BDF80C000A1A00EE102AF8EEC00A63
:104080009FED4A1A084481EE200A00EE900AB8EE2D
:10409000601A85ED090ADFED460A40EE410AB6EEE8
:1040A000000A60EE800AFDEEE00A10EE900AA88594
:1040B000BDF81610BDF80E000A1A00EE902AB8EEF0
:1040C000E01ADFED3C1A08443246C1EE810A01EEE7
:1040D000100A5946F8EE411A9FED371AC5ED0A0A43
:1040E00000EEE11A21EE000ABDEEC00A10EE100A41
:1040F000E8854FF4E67000F099F8CDE90068454690
:104100004C464B462DA2282105200297FFF76CFA5A
:10411000CDE90065234631A23C2105200297FFF737
:1041200063FA4FF4167005F02FFA234633A271E0BC
:10413000FCFCFC00506C656173652061646A7573FA
:10414000746D656E74207468652073637265656E46
:104150002E000000D8C001200000000066666666E0
:104160006666EE3FCDCCCCCCCCCCF03F546F7563C3
:10417000682041646A7573742046696C6564212007
:10418000202020202020202020000000506C65618D
:1041900073652041646A75737420416761696E219B
:1041A0002020202020202020200000000000DC43D0
:1041B0000000F04300008C430000A043546F75637F
:1041C000682053637265656E2041646A757374205C
:1041D0004F4B2120202020202000000020202020E4
:1041E00020202020202020202020202020202020CF
:1041F000202020202020202020000000202020201F
:1042000020202020202020202020202020202020AE
:1042100020202000CDE90065282105200297FFF726
:10422000E3F907B0BDEC0A8BBDE8F08F2DE9F84348
:10423000054616460D30009282B2A5F10C000C46E0
:1042400080B20B46FFF713F804F10D0083B2193862
:1042500081B22A4610460096FFF709F8671C05F15F
:104260000109B9B21FFA89F03246FFF74EF8A5F1FD
:104270000108B9B21FFA88F03246FFF746F8671E08
:10428000B9B21FFA89F03246FFF73FF8B9B21FFA08
:1042900088F03246FFF739F801B033462146284608
:1042A000BDE8F0430622FCF707BF000010B501226D
:1042B00040211648FDF7B9F8154C00224FF4005183
:1042C0002046FDF7B2F800224FF400412046FDF7EA
:1042D000ACF8642005F058F90E48007800F020F89A
:1042E0000A2005F051F90B489FED0B0A001D6FF0F5
:1042F0000B0180ED090A81859FED080A40F2491102
:1043000080ED0A0AC185002010BD000000100240A7
:1043100000040240D4C00120C284013E3DD6ACBDA1
:104320002DE9F04700252C4F80464FF400562C46CF
:104330002A4631463846FDF778F80022B100384663
:10434000FDF773F8DFF894A0002240215046FDF7F6
:104350006CF8404600F02AF9062005F039F90022F1
:1043600031463846FDF761F8012005F031F90122A8
:1043700031463846FDF759F8012005F029F90022A9
:1043800031463846FDF751F8DFF854904FF6FF7884
:1043900008EA4404002231463846FDF746F8012079
:1043A00005F016F9012231463846FDF73EF80421A2
:1043B0004846FDF735F808B1641CA4B26D1CEDB297
:1043C000102DE5D32409012240215046FDF72DF898
:1043D0002046BDE8F08700000004024000100240C3
:1043E00000080240FEB5064600256C463046FFF741
:1043F00097FF24F815006D1CADB2052DF6D30020F3
:10440000431C99B20CE000BF34F8102034F811506E
:10441000AA4203D924F8105024F81120491C89B26B
:104420000529F1D398B20428EAD300215FF00100F6
:1044300034F81020401C114480B289B20428F7D30C
:104440000320B1FBF0F0FEBD2DE9F041074C06461C
:104450000D462078FFF7C6FF07466078FFF7C2FFDA
:10446000378028800120BDE8F0810000D4C0012001
:104470007FB50C460546694602A8FFF7E5FF002810
:104480002FD001A903A8FFF7DFFF002829D0BDF82E
:104490000C30BDF80820934203D803F13200824269
:1044A00005D39A421FD802F1320083421BD2BDF8D5
:1044B0000410BDF80000814203D801F13206B04279
:1044C00004D388420FD8323081420CD2D018400831
:1044D0002880BDF80000BDF8041008444008208082
:1044E000012004B070BD0020FBE7000070B5054658
:1044F00080212C48FCF794FF2B4C40B194F820000D
:10450000010643D520F0800084F8200045E02648CD
:1045100000F116010C3015B1FFF7AAFF2AE0FFF7F2
:10452000A7FF38B3B4F92C0094ED091A00EE100A75
:10453000A089F8EEC00A00EE100AB8EE400A41EE7B
:10454000000ABCEEE00A10EE100AA081B4F92E00B9
:1045500094ED0A1A00EE100AE08A00EE900AB8EE16
:10456000C00AF8EE600A01EE200ABCEEC00A10EEA6
:10457000100AE08294F8200000060ED4C02084F8CF
:104580002000A089A082E08AE08306E00020A082CB
:10459000E0834FF6FF70A081E08294F8200000F0E5
:1045A000800070BD00100240D8C001202DE9F0410C
:1045B000124F054600244FF400484FF400562806D9
:1045C00001D5012200E0002241463846FCF72DFFCC
:1045D0006806050E002231463846FCF726FF01200A
:1045E00004F0F6FF012231463846FCF71EFF641C3A
:1045F000E4B2082CE3D3BDE8F081000000040240DF
:1046000010B5806B0021C185C184FEF75CF910BD37
:1046100001680C3151E8002F22F4907241E8002328
:10462000002BF5D10168143151E8002F22F001026E
:1046300041E80023002BF5D1016B012909D1016864
:104640000C3151E8002F22F0100241E80023002B2A
:10465000F5D1202180F83E1000210163704708B594
:1046600090F83E10222901D0022008BD82684FF444
:1046700080539A4201D1016921B1816A9A421BD0CB
:104680004AB10AE00268816A5268C2F308020A80ED
:10469000816A891C08E0026972B10268526802F0FE
:1046A0007F020A70816A491C8162C18D491E09041A
:1046B000090CC18503D019E002685268F1E701686E
:1046C000CA6822F02002CA600168CA6822F48072B7
:1046D000CA6001684A6922F001024A61202180F81B
:1046E0003E10016B012903D0FEF702FB002008BD3C
:1046F0000021016301680C3151E8002F22F0100203
:1047000041E80023002BF5D101680A68D20602D5E2
:104710000A6849680091818DFEF7D4F8E6E7000049
:1047200070B5044600680169E26821F44051114304
:1047300001612169A068E269084361691143084386
:104740002168CA6849F20C639A430243CA60206830
:104750004169A26921F440711143416131492068E6
:10476000884202D03049884202D1FDF73DFA01E08B
:10477000FDF72AFAE2690023192164253226B2F5F1
:10478000004F626828D0A0FB0101930F9200FBF755
:1047900079FD0146B0FBF5F06FF01802504301EBD4
:1047A000800006EB0010B0FBF5F000F0F002B1FB6A
:1047B000F5F002EB0012B1FBF5F06FF0180358436F
:1047C00001EB800006EB0010B0FBF5F000F00F00ED
:1047D00021681044886070BDA0FB010192185B4104
:1047E000FBF750FD0146B0FBF5F00201B1FBF5F01F
:1047F0006FF01803584301EB800006EBC000B0FBDC
:10480000F5F000F0F80002EB4002B1FBF5F0584380
:1048100001EB800006EBC000B0FBF5F000F00700F4
:10482000D6E700000010014000140140816282853B
:10483000C28500210164222280F83E2080F83C10CD
:10484000016921B10168CA6842F48072CA600168D6
:104850004A6942F001024A610068C16841F02001E2
:10486000C160002070472DE9F041984617460E467A
:104870000446069D27E0681C25D02DB1FCF7DAFD23
:10488000A0EB0800A8421ED920680C3050E8001F99
:1048900021F4D07140E80012002AF5D120681430CC
:1048A00050E8001F21F0010140E80012002AF5D174
:1048B000202084F83D0084F83E00002084F83C006D
:1048C0000320BDE8F0812068006836EA000004D0CB
:1048D0000020B842CFD00020F3E70120F9E7000024
:1048E0000148FDF7F1BF000088C20120094808B562
:1048F00000680168C943C90607D401684068009090
:104900000548C188054828F04FFFBDE80840014828
:10491000FDF7DABFCCC201200000002054C5012001
:104920000148FDF7D1BF000010C30120FEE70000E1
:104930000FB4054B10B503A9044A029801F03AFDE3
:1049400010BC5DF814FB0000F51801080CC0012034
:104950000FB47CB50C0009AD01D0611E00E0002150
:10496000CDE90001064B6A462946089801F022FD70
:10497000002C02D0009A002111707CBC5DF814FB61
:10498000BB6A00080907090E002804DB00F1E020DB
:1049900080F80014704700F00F0000F1E02080F86C
:1049A000141D704700487047F4C1012000B52DED7B
:1049B000048BB0EE409AF0EE609A83B051EC190B84
:1049C000FCF726F941EC180B18EE100A18EE901AB5
:1049D0008DED008B002818BF0120084320F0004017
:1049E000C0F17F6000F1E040C00F14D019EE101A42
:1049F00019EE900A8DED009B002918BF0121084394
:104A000020F00040C0F17F6000F1E040C00F04BF23
:104A1000012000F017F8B0EE480A03B0F0EE680A83
:104A2000BDEC048B00BD02E008C8121F08C1002ABB
:104A3000FAD170477047002001E001C1121F002A1F
:104A4000FBD170470149086070470000F4C10120A4
:104A500070B5044600256FF02F0608E02068411C61
:104A60002160007805EB850106EB410145182068BF
:104A7000007800F0C7F80028F0D1284670BD00008B
:104A80002DE9FF5F82B00021DDE90430020DDDF881
:104A900040B0034318D044F61050A2F2FF32424314
:104AA0001514119801281FD0A5EB0B00401C5FEADC
:104AB000000A4FF000064E4FDFF83891B0465046DE
:104AC00015D5CAF1000413E0119801244AA3012866
:104AD00001D16FEA0B010298119AC0E90031C0E9D7
:104AE000024206B0BDE8F09FCBF10000DFE70446CC
:104AF0000021404A491842EB0450CDE9001012E071
:104B0000E00707D032463B4640464946FBF79FFF49
:104B10008046894632463B4610461946FBF797FFCA
:104B200006460F466410002CEAD1DDE90401DDE9F8
:104B30000023BAF1000F06DAFBF789FF42464B4625
:104B4000FBF785FF05E0FBF7F4FF42464B46FBF71A
:104B5000F0FF04460E460022284BFBF787FD03D8E2
:104B60004FF0FF30014607E00022254B204631463A
:104B7000FBF7C6FEFCF79DF8102409E0002C0ADBC9
:104B80000A220023FBF77EFB039B30321A55641E7A
:104B900050EA0102F2D1641C039AC4F111031444D7
:104BA000119A012A03D0012208430DD10AE00843DB
:104BB00004D000204FF0110B119072E7A3EB0B050E
:104BC0006D1E0DE05B4504DD4FF0000205F10105AF
:104BD00004E003DA4FF00002A5F10105002AECD051
:104BE00002981199C0E90231C0E9004579E7000057
:104BF000000014400000F03F300000000000F043CF
:104C00000000E03F3038092801D80120704700201B
:104C10007047000010B54421074800F08DFE0022C7
:104C20001E21064820F026FF054CA06002F0E2FAA3
:104C30000020207010BD0000CC020020A9720008E6
:104C40003C0000202DE9F0470E46814617461146EC
:104C5000304600F01CF94FF0FF3A00287DD00022CA
:104C60003946304600F0BFF800284FF0000075D1FB
:104C7000B6F90480B6F900305246A8EB0301491C8E
:104C80000AFA81F10FFA81FAB6F906C0B6F90210F4
:104C9000ACEB010C0CF1010C02FA8CF2B7F802C07B
:104CA00012B2ACEB010C0FFA8CFCBCF1000F0EDD64
:104CB00063F30F0468F30F0501EB0C0061F31F446D
:104CC00060F31F45C9F800400120C9F80450B7F946
:104CD00006107388CB1AD21A12B2002A13DDB6F965
:104CE000063099420FDA338863F30F04B38861F317
:104CF0001F4463F30F05114461F31F4509EBC00125
:104D0000401C0C604D60B7F90220B6F902108A42CF
:104D100000DD1146B7F90630B6F90620934200DAF5
:104D20001A463B88B6F900C0521AA3EB0C031BB21B
:104D300012B2002B10DD002A0EDD634463F30F0571
:104D40008B1863F31F456CF30F0409EBC00361F389
:104D50001F441C605D60401C01E01AE017E0B7F9D9
:104D6000043036889F1BAAEB070636B2002E0EDDF4
:104D700063F30F0461F31F44334463F30F051144DD
:104D800061F31F4509EBC001401C0C604D60BDE89C
:104D9000F0875046FBE770B5B1F90030B2F900403A
:104DA000A34200DC23460380B1F90250B2F902406D
:104DB000A54200DD2C464480B1F90460B2F90450EC
:104DC000AE4200DA35468580B1F90610B2F9062008
:104DD000914200DB1146C1800120AB4201DC8C42D4
:104DE00000DD002070BDF8B50D460446B0F90000A6
:104DF000B1F900101646884247DBB4F90210B5F944
:104E00000220914241DBB4F90410B5F9042091422B
:104E10003BDCB4F90610B5F90620914235DC96B3B7
:104E2000ADF800006088ADF80200324669462846B9
:104E300000F099F8002827D0A088ADF8000060881D
:104E4000ADF8020032466946284600F08CF800288A
:104E50001AD02088ADF80000E088ADF80200324694
:104E60006946284600F07FF800280DD0A088ADF8EC
:104E70000000E088ADF8020032466946284600F09E
:104E800072F8002800D00120F8BD0020F8BDB0F96C
:104E90000020B1F904309A4213DCB0F90420B1F9D2
:104EA00000309A420DDBB0F90220B1F906309A4287
:104EB00007DCB0F90600B1F90210884201DB0120DD
:104EC000704700207047F8B50D460446B0F904005D
:104ED000B1F900101646884243DBB4F90600B5F973
:104EE000021088423DDBB4F90000B5F90410884295
:104EF00037DCB4F90210B5F90620914231DC76B303
:104F0000ADF800006088ADF80200324669462846D8
:104F100000F029F818BBA088ADF800006088ADF853
:104F2000020032466946284600F01DF8B8B92088CC
:104F3000ADF80000E088ADF8020032466946284628
:104F400000F011F858B9A088ADF80000E088ADF87D
:104F5000020032466946284600F005F808B10020F4
:104F6000F8BD0120F8BD2DE9FC4114460E46B1F90B
:104F70000020B0F9001005468A423ADBB5F904007A
:104F8000824236DCB6F90270B5F90220974230DB76
:104F9000B5F906309F422CDC002C75DD401A9A1AB8
:104FA000401C521C00B212B200EBD07002EBD27265
:104FB00040105210904200DB1046844200DD04464F
:104FC000ADF80010288800222044ADF8040068885D
:104FD000ADF80200688831462044ADF80600684606
:104FE000FFF7C1FF40B1BDF804002044ADF8040054
:104FF0003FE00020BDE8FC81E8880022001BADF8FE
:105000000200E888ADF8060031466846FFF7ABFFBE
:1050100028B1BDF804002044ADF8040011E0A888D0
:105020000022001BADF80000A888ADF8040031464E
:105030006846FFF798FF50B1BDF80000001BADF8BF
:105040000000BDF80200001BADF8020016E0688801
:10505000ADF80200688800222044ADF80600314611
:105060006846FFF780FF70B1BDF80000001BADF887
:105070000000BDF806002044ADF806003146684641
:105080001EF0B8F9B6E7FFE70120B3E710B5B1F9B4
:105090000040B2F900309C4200DA23460380B1F9A7
:1050A0000240B2F902309C4200DA23464380B1F953
:1050B0000440B2F904309C4200DD23468380B1F9FC
:1050C0000610B2F90620914200DC1146C18010BDE5
:1050D000F8B5074620F06AFC0025374C06460095D7
:1050E00037B1F8686060384620F092FD606802E0F1
:1050F00013F0A2FA606000691EF078F860684069F9
:1051000008B11EF073F86068C0691EF06FF860683F
:10511000006A1EF06BF86068016991B11EF016FA22
:1051200025F02CF824F052FD6068B0F85011D9B386
:105130000068017CC9071DD0C0684068D0B1002755
:1051400013E0A0F85051F8BDC11991F8301151B9D0
:1051500000F5AC7000F047FC616801EBC7010A6B19
:105160000260496B41607F1CBFB26068B0F85011AB
:10517000B942E9D860684FF48071303019F0D4FC3E
:105180006068202100F5987019F0CEFC6068A0F8E6
:105190005051304620F004FC009060680068436A7B
:1051A00013B122680099984719F03CFB00F032F8DF
:1051B000BDE8F84000F002B888C1012070B50A4D82
:1051C000002400BFC4EBC40655F8260008B119F04E
:1051D0009DFB05EB86001C2119F0A6FC641CE4B2C3
:1051E000042CEFD370BD0000A803002008494968D3
:1051F0000AE04A68824202D00A68824203D10A7EEB
:1052000042F001020A7649690029F2D17047000094
:105210007C000020704700000421014800F08CBB96
:10522000C00200202021014800F086BBD8020020E7
:105230002DE9FF410446DDE90A671D004FF000003B
:1052400002D1B6F5807F2BD0039001900290ADF88B
:105250000C100090ADF80410ADF80A20ADF80E2047
:105260003B463246294668461EF024F83B46324605
:10527000294601A81EF01EF83B463246294602A8E0
:105280001EF018F83B463246294603A81EF012F8D5
:10529000BDF90000BDF90430984209DA054608E07E
:1052A0002080491E6080A180521EE280BDE8FF81FF
:1052B0001D46BDF90820BDF90C108A4201DA1646D8
:1052C00000E00E46B54203DA984206DB184604E0D9
:1052D0008A4201DA104600E00846801E2080BDF9AF
:1052E0000030BDF90420934201DD1D4600E0154663
:1052F000BDF90800BDF90C10884201DD064600E04A
:105300000E46B54205DD934201DD194604E0114623
:1053100002E0884200DD0146891CA180BDF902300F
:10532000BDF90620934201DA1D4600E01546BDF99D
:105330000A00BDF90E10884201DA064600E00E466A
:10534000B54205DA934201DA194604E0114602E05B
:10535000884200DA0146891E6180BDF90230BDF93C
:105360000620934201DD1D4600E01546BDF90A0006
:10537000BDF90E10884201DD064600E00E46B5423A
:1053800005DD934201DD194604E0114602E0884242
:1053900000DD0146891CE18088E700002DE9F0412D
:1053A00015460E460746114C20F000FB80462B4662
:1053B00032463946204617F027FB20B10020A06274
:1053C000E06950B110E02C21204619F0ADFB4FF000
:1053D0000040A0620020BDE8F081404620F0E0FAE5
:1053E000E06108B90120E0612046F4E7FC020020FA
:1053F00010B51421074800F09FFA17F0CBFA40B11E
:105400000549016005494160054981600549C16060
:1054100010BDFEE7E402002069C30108E5C60108EB
:10542000B5C8010835C3010870B50D460446102102
:10543000284619F079FB20680078012804D002285A
:1054400007D0042807D008E0A08A2880E08A688076
:1054500003E0E06800E00A20686020684268002AF3
:1054600003D02946BDE87040104770BD2DE9FE43CA
:105470000446808A10B9E08A002874D0D4F82C80C1
:105480005FEA080010D120460BF015FD5FEA000826
:1054900069D020460EF06AFA00220921404616F033
:1054A000ADF9607880075ED44FF4807900274E46CE
:1054B0004546002128461BF09BFF384407B20021D7
:1054C00028461BF0B3FFC11700EB1160001210FB60
:1054D00006F006B228461AF087FF0500E9D10FB999
:1054E0004E450CD0784201B24FF4803090FBF6F07C
:1054F00002B26B4604F1140000951DF0DBFEADF81E
:105500000450ADF8085094F8400000F00F00032854
:10551000404616D01BF0BAF8064640461AF070FF17
:1055200003460C200090B4F91610324640460AF0AB
:10553000BDFFADF8080040461AF0B4FFC10713D014
:1055400018E01BF037F8064640461AF0D3FF024633
:1055500003200090B4F91410334640460AF0A6FF29
:10556000ADF80400E7E736E0BDF90410002901DDDD
:10557000ADF80450810705D4BDF90410002901DA03
:10558000ADF80450410705D4BDF90810002901DD2C
:10559000ADF80850000705D4BDF90800002801DA6D
:1055A000ADF8085002AA01A9204625F01DF9BDF961
:1055B0000820BDF90410404600F08AFA60788007A0
:1055C00009D4208BBDF8041008442083608BBDF8FB
:1055D000081008446083BDE8FE832DE9FC5F0446A3
:1055E000C06A5FEA000B71D094F8400000076DD0EC
:1055F00017F09CFC019000684021457E58461CF045
:1056000041F84FF0000818B9A4F81E80A4F81C80D7
:1056100058461BF02DF8824658461BF030F80646D7
:1056200094F840004FF0640900F00F000C2802D0FD
:1056300003284CD09AE0A4F81C8056B1B4F91E504F
:10564000002717F073FC00684946407EC0F16400F3
:1056500022E0E08BC5F1640110FB01F191FBF9F050
:10566000E08358461AF0CCFE054658461BF00EF86B
:1056700002460C200090B4F91E102B4658460AF042
:1056800015FFE083024600231EE07A1917B210FBD3
:1056900005F292FBF1F215B2002DF6D1ADF80070D3
:1056A000A4F81E806A460021204625F09DF841F6A8
:1056B000FF72BDF90030514258460BF093FDBDF822
:1056C00000100123084402B200214CE09AE0A4F843
:1056D0001E80BAF1000F0AD0B4F91C50002717F051
:1056E00025FC00684946407EC0F1640022E0A08BA2
:1056F000C5F1640110FB01F191FBF9F0A08358465C
:105700001AF0F8FE054658461AF054FF03460320E7
:105710000090B4F91C102A4658460AF0C7FEA08330
:10572000014600231EE07A1917B210FB05F292FB26
:10573000F1F215B2002DF6D1ADF80070A4F81C807E
:1057400000226946204625F04FF841F6FF72BDF968
:105750000030514258460BF0BDFCBDF8001001234B
:10576000084401B2002258461DF0C8F8A08B00285A
:1057700048D1E08B002845D1C6B958461AF086FFBB
:10578000054658461AF03CFE002D06DC00280DDDCB
:10579000002D02DA01232A4604E0002806DA01235C
:1057A000404202B2002158461DF0A8F8BAF1000F9D
:1057B00019D158461AF09EFE054658461AF0FAFED0
:1057C000002D07DC00280EDD002D03DA0123002266
:1057D000294605E0002806DA01230022404201B2F2
:1057E00058461DF08BF80A215846019A16F006F823
:1057F0006078800706D414F8400F20F00F00207066
:1058000044F8148CBDE8FC9F7FB50E46040003D11C
:1058100012F012FF04002CD012F082FF002828D0D2
:1058200094F82800400724D4002506B3ADF80050B2
:10583000ADF80250204612F017FF401EADF80400EC
:10584000204612F057FF401EADF806006A4631466A
:1058500002A8FFF7A0FA00280BD02068017C890776
:1058600008D5DDE90001C4E90C01012029E0A4F814
:1058700050517FBD82690AB102A9904700260AE013
:1058800004EBC601002202A83031FFF7ACFA002871
:10589000EFD1761CB6B2B4F85001B042F0D880B265
:1058A000202804D204EBC00002A9303004E0A4F8A0
:1058B000505104F13000694610F097FCB4F85001E3
:1058C000401CA4F8500160680028D2D020F0ACF948
:1058D0007FBD70B5054600F012F804460CE0214685
:1058E000284600F01EF806462146284600F0A2F899
:1058F000204619F00BF83446002CF0D170BD00287A
:1059000000D04068704700B503460022FFF7F7FF5C
:1059100003E01846521C00F004F80100F9D11046CB
:1059200000BD0068091D4058704700684058704726
:10593000002800D08068704700224260C91C21F016
:10594000030182600160704770B50446006808304A
:1059500018F050FF050013D001460022204622F027
:105960008DFA29462046626822F082FA616819B1F0
:105970002A46204622F082FA6560A06800B9A56038
:10598000284670BD2DE9F0410C4606000AD04CB106
:10599000FFF7B5FFA04208D13046FFF7D5FF051E3F
:1059A00001D01EE00020BDE8F0813068083018F01A
:1059B00021FF051EF7D030682A4607593046394680
:1059C00022F056FA3A462946304622F057FA2A463D
:1059D0002146304622F052FA22462946304622F02D
:1059E00047FA2846DFE770B504460068083018F02B
:1059F00001FF050013D001460022204622F038FAAC
:105A000029462046A26822F039FAA16819B12A462F
:105A1000204622F02DFAA560606800B9656028462E
:105A200070BD28B1416809B9806808B1002070478D
:105A30000120704770B504000DD0FFF760FF002211
:105A40008842204608D1FFF76CFF6060011E01D03C
:105A500000221EE0A26070BDFFF76AFF8842206846
:105A600008440AD10168A16029B12046BDE8704010
:105A7000002222F0FDB9626070BD05682046FFF784
:105A800050FF064602462946204622F0F1F92A46F2
:105A900031462046BDE8704022F0F0B910B504460A
:105AA000006882680AB12146904720680068002893
:105AB00001D02060F5E710BD8068002801D0B0F962
:105AC000160070478068002801D0807E80097047EA
:105AD00070B5164605460C4651EA06001AD028460F
